C51 COMPILER V9.55   DS18B20____                                                           07/10/2019 20:29:32 PAGE 1   


C51 COMPILER V9.55, COMPILATION OF MODULE DS18B20____
OBJECT MODULE PLACED IN ds18b20液晶.OBJ
COMPILER INVOKED BY: C:\Keil_v5\C51\BIN\C51.EXE ds18b20液晶.c OPTIMIZE(8,SPEED) BROWSE DEBUG OBJECTEXTEND TABS(2)

line level    source

   1          #include <reg52.h>
   2          #include <intrins.h>
   3          #define uint  unsigned int 
   4          #define uchar unsigned char
   5          #include "1602.h"
   6          #include "DS18B20.h"
   7          
   8          sfr CLK_DIV = 0x97; //Clock Divder   
   9          
  10          sbit led1=P3^3;
  11          sbit led2=P3^4;
  12          
  13          sbit Button0=P1^0;
  14          sbit Button1=P1^1;
  15          sbit Button2=P1^2;
  16          
  17          
  18          uchar temp1[]={"00.0  00.0  00.0"}; //  显示的数组缓存
  19          uchar temp2[]={"00.0  00.0  00.0"}; //  显示的数组缓存
  20          
  21          uint Button_Flag;
  22          uint High_Line;//High Temp
  23          uint Low_Line;//Low Temp
  24          
  25          uint wendu1;
  26          uint wendu2;
  27          uint wendu3;
  28          uint wendu4;
  29          uint wendu5;
  30          
  31          void InitCom(uchar BaudRate)
  32          {
  33   1      uchar THTL;
  34   1      switch (BaudRate)
  35   1        {
  36   2          case 1: THTL = 64; break; //波特率300
  37   2          case 2: THTL = 160; break; //600
  38   2          case 3: THTL = 208; break; //1200
  39   2          case 4: THTL = 232; break; //2400
  40   2          case 5: THTL = 244; break; //4800
  41   2          case 6: THTL = 250; break; //9600
  42   2          case 7: THTL = 253; break; //19200
  43   2          case 8: THTL = 255; break; //57600
  44   2          default: THTL = 208;
  45   2        }
  46   1        SCON = 0x50; //串口方式1,允许接收
  47   1        TMOD = 0x20; //定时器1定时方式2
  48   1        TCON = 0x40; //设定时器1开始计数
  49   1        TH1 = THTL;
  50   1        TL1 = THTL;
  51   1        PCON = 0x80; //波特率加倍控制,SMOD位
  52   1        RI = 0; //清收发标志
  53   1        TI = 0;
  54   1        TR1 = 1; //启动定时器
  55   1      }
C51 COMPILER V9.55   DS18B20____                                                           07/10/2019 20:29:32 PAGE 2   

  56          
  57          void ComOutStr(uchar *Str)
  58          {
  59   1        while(*Str != 0x00) //判断是否到了字符串的尾部
  60   1        {
  61   2          SBUF = *Str; //输出字符
  62   2          while(!TI); //空语句判断字符是否发完
  63   2          TI = 0; //清TI
  64   2          Str++; //字符串指针加一
  65   2        }
  66   1      }
  67          
  68          
  69          void zhuanhuan()
  70          {
  71   1         temp1[0]=wendu1/100+0x30;  // 转换 温度  
  72   1         temp1[1]=wendu1/10%10+0x30;
  73   1         temp1[2]='.';
  74   1         temp1[3]=wendu1%10+0x30;
  75   1        
  76   1         temp1[6]=wendu2/100+0x30;  // 转换 温度  
  77   1         temp1[7]=wendu2/10%10+0x30;
  78   1         temp1[8]='.';
  79   1         temp1[9]=wendu2%10+0x30;
  80   1        
  81   1         temp1[12]=wendu3/100+0x30; // 转换 温度  
  82   1         temp1[13]=wendu3/10%10+0x30;
  83   1         temp1[14]='.';
  84   1         temp1[15]=wendu3%10+0x30;  
  85   1        
  86   1         temp2[0]=wendu4/100+0x30;  // 转换 温度  
  87   1         temp2[1]=wendu4/10%10+0x30;
  88   1         temp2[2]='.';
  89   1         temp2[3]=wendu4%10+0x30;
  90   1      
  91   1         temp2[6]=wendu5/100+0x30;  // 转换 温度  
  92   1         temp2[7]=wendu5/10%10+0x30;
  93   1         temp2[8]='.';
  94   1         temp2[9]=wendu5%10+0x30;
  95   1         
  96   1         if(Button_Flag==0)
  97   1         {
  98   2         temp2[12]=High_Line/100+0x30;  // 转换 温度  
  99   2         temp2[13]=High_Line/10%10+0x30;
 100   2         temp2[14]='.';
 101   2         temp2[15]=High_Line%10+0x30; 
 102   2         }
 103   1         else if(Button_Flag==1)
 104   1         {
 105   2         temp2[12]=Low_Line/100+0x30; // 转换 温度  
 106   2         temp2[13]=Low_Line/10%10+0x30;
 107   2         temp2[14]='.';
 108   2         temp2[15]=Low_Line%10+0x30;  
 109   2         }
 110   1         
 111   1         ComOutStr(temp1);
 112   1         ComOutStr("  ");
 113   1         ComOutStr(temp2);
 114   1         ComOutStr("\n");
 115   1        }
 116          
 117          void saomiao()
C51 COMPILER V9.55   DS18B20____                                                           07/10/2019 20:29:32 PAGE 3   

 118          {
 119   1        GotoXY(0,0);//显示起始位置   Y=0,第一行，Y=1 第二行 显示第二行
 120   1        Print(temp1);// 内容 
 121   1        GotoXY(0,1);//显示起始位置   Y=0,第一行，Y=1 第二行//显示第一行
 122   1        Print(temp2);// 内容 
 123   1      
 124   1      }
 125          
 126          main()
 127          {
 128   1      int i=0;
 129   1      
 130   1      Button0=1;
 131   1      Button1=1;
 132   1      Button2=1;
 133   1        
 134   1      High_Line=300;
 135   1      Low_Line=200; 
 136   1        
 137   1      CLK_DIV=0X01; 
 138   1      LCD_Initial();    //液晶初始化
 139   1      InitCom(6);
 140   1      
 141   1       while(1)
 142   1       {
 143   2      
 144   2            wendu1=ReadTemp(0);//测第1路
 145   2            delay(10); 
 146   2            wendu2=ReadTemp(1);//测第2路
 147   2            delay(10);  
 148   2            wendu3=ReadTemp(2);//测第3路
 149   2            delay(10);  
 150   2            wendu4=ReadTemp(3);//测第4路
 151   2            delay(10); 
 152   2            wendu5=ReadTemp(4);//测第5路
 153   2            delay(10); 
 154   2            
 155   2      
 156   2                if(!Button0)
 157   2              {
 158   3                Button_Flag=0;
 159   3              }
 160   2                if(!Button1)
 161   2              {
 162   3                Button_Flag=1;
 163   3              }
 164   2                if(!Button2)
 165   2              {
 166   3                  if(Button_Flag==0)
 167   3                    if(High_Line<=950)
 168   3                      High_Line=High_Line+50;
 169   3                    
 170   3                  if(Button_Flag==1)
 171   3                    if(Low_Line<=950)
 172   3                      Low_Line=Low_Line+50;
 173   3              }
 174   2              if(High_Line==1000) High_Line=000;
 175   2              if(Low_Line==1000) Low_Line=000;
 176   2              
 177   2              if((wendu1 > High_Line)|(wendu2 > High_Line)|(wendu3 > High_Line)|(wendu4 > High_Line)|(wendu5 > High_
             -Line))//判断范围
 178   2           {
C51 COMPILER V9.55   DS18B20____                                                           07/10/2019 20:29:32 PAGE 4   

 179   3                for(i=2;i>0;i--)
 180   3                {
 181   4                  delay(15);
 182   4                led2=!led2;
 183   4                }
 184   3           }
 185   2           else if((wendu1 < Low_Line)|(wendu2 < Low_Line)|(wendu3 < Low_Line)|(wendu4 < Low_Line)|(wendu5 < Low_L
             -ine))
 186   2          {
 187   3                for(i=2;i>0;i--)
 188   3                {
 189   4                  delay(15);
 190   4                led1=!led1;
 191   4                }
 192   3           }
 193   2            zhuanhuan();  // 转换显示
 194   2            saomiao();    // 送显示
 195   2      
 196   2       }
 197   1      }


MODULE INFORMATION:   STATIC OVERLAYABLE
   CODE SIZE        =   1714    ----
   CONSTANT SIZE    =     45    ----
   XDATA SIZE       =   ----    ----
   PDATA SIZE       =   ----    ----
   DATA SIZE        =     58       4
   IDATA SIZE       =   ----    ----
   BIT SIZE         =   ----       1
END OF MODULE INFORMATION.


C51 COMPILATION COMPLETE.  0 WARNING(S),  0 ERROR(S)
