:10091D002020000A000E00000A16B769285E0000AC
:10092D000A17222328D100000A174FD328C7000029
:0D093D000A16B564289F00000A16BF18288E
:1009C500113530302E30202030302E302020303080
:1009D5002E3000114630302E30202030302E302081
:0609E5002030302E30002E
:0409EC007F0A7E0000
:1009F000D3EF9400EE940040147D6C7C02ED1D70EA
:0D0A0000011CED4C70F7EF1F70E61E80E347
:010A0D0022C6
:100A8A00C2A7A20092A5C2A600850A8000D2A7002A
:0A0A9A00C2A7007F017E000209F0F0
:0A0ABA00C200EF4408F50A020A8AA0
:0A0AC400C200EF4404F50A020A8A9A
:1008D600C2A7C200750A38120A8A7F057E0012096D
:1008E600F0C200750A38120A8A7F057E001209F0E6
:1008F6007F04120ABA7F057E001209F0C200750A4B
:1009060001120A8A7F057E001209F07F02120AC4CC
:070916007F057E000209F0DD
:100A0E00AB05AA07EB700AC200EA4480F50A120A87
:100A1E008ABB010CC200EA24C04480F50A120A8A7D
:010A2E0022A5
:100A4E001202C0FF6017D200F50A120A8A74012939
:0E0A5E00F9E43AFA7F017E001209F080E322EB
:070A6C001209A07F0C7E00BF
:100A7300EF1FAA0670011E4A600C7D0AEDD3940095
:060A830040EE001D80F6AC
:010A8900224A
:10097500E4FCD2A07F08FE120A73C2A07F647E0049
:10098500120A73D2A07F0E7E00120A73A2A0E4336E
:08099500FC7F147E00020A73CE
:10094A00E4FBD2A000C2A000D2A07F027E00120A5D
:10095A0073ECC313FC30A00543048080007F087E3B
:0A096A0000120A730BBB08DAAF0499
:010974002260
:03099D00EC93FFD9
:0209A000A907A5
:1009A2007B08D2A000C2A000E91392A07F097E00BA
:1009B200120A73D2A07F017E00120A73E9C313F9EF
:0209C200DBE078
:0109C4002210
:0206D9008F0A86
:1006DB00E4F9FD120975AF0A1208067F44120A6C81
:1006EB00120975AF0A1208067FBE120A6C12094A6C
:1006FB00A90712094AAD07ED755900F55A755A004D
:10070B00F559AF01EF425AED54FC64FC701CF52710
:10071B00752801E55AF4FFE559F4FEEF2401F55A6B
:10072B00E43EF559FCAD5AE48009E4F527F528AC15
:10073B0059AD5A120206E4FBFA7980783D1200FBA0
:10074B008F248E238D228C21E4FFFE7D207C41ABF8
:10075B0024AA23A922A8211200FBE4FBFAF9783F73
:0E076B0012000A12023F8E598F5AAE59AF5A31
:01077900225D
:10080600EF14601D14602A14603A14604A240470C0
:10081600587F551209A07C0890092112099DDCF821
:10082600227F551209A07C0890092912099DDCF83F
:10083600227F551209A07C08EC90093193FF12091A
:10084600A0DCF5227F551209A07C08EC90093993AB
:10085600FF1209A0DCF5227F551209A07C08EC9056
:09086600094193FF1209A0DCF521
:01086F002266
:10087000EF14B40800504690088575F003A4C583B2
:1008800025F0C5837302089D0208A10208A502088D
:10089000A90208AD0208B10208B50208B97E40807D
:1008A0001E7EA0801A7ED080167EE880127EF480A4
:1008B0000E7EFA800A7EFD80067EFF80027ED07565
:1008C00098507589207588408E8D8E8B758780C273
:0508D00098C299D28ED0
:0108D5002200
:100AA4001202C06010F5993099FDC299740129F9B8
:060AB400E43AFA80EB2297
:10051D00AE29AF2A7C007D641202D9EF2430F53567
:10052D00AE29AF2A7C007D0A1202D97C007D0A1209
:10053D0002D9ED2430F53675372EAE29AF2A7C0061
:10054D007D0A1202D9ED2430F538AE2BAF2C7C008C
:10055D007D641202D9EF2430F53BAE2BAF2C7C001D
:10056D007D0A1202D97C007D0A1202D9ED2430F5E4
:10057D003C753D2EAE2BAF2C7C007D0A1202D9EDC1
:10058D002430F53EAE2DAF2E7C007D641202D9EFE6
:10059D002430F541AE2DAF2E7C007D0A1202D97CA0
:1005AD00007D0A1202D9ED2430F54275432EAE2D91
:1005BD00AF2E7C007D0A1202D9ED2430F544AE2F0A
:1005CD00AF307C007D641202D9EF2430F546AE2F9A
:1005DD00AF307C007D0A1202D97C007D0A1202D94F
:1005ED00ED2430F54775482EAE2FAF307C007D0AD7
:1005FD001202D9ED2430F549AE31AF327C007D6465
:10060D001202D9EF2430F54CAE31AF327C007D0AA9
:10061D001202D97C007D0A1202D9ED2430F54D75F8
:10062D004E2EAE31AF327C007D0A1202D9ED243050
:10063D00F54FE5344533702FAE57AF58FC7D64123E
:10064D0002D9EF2430F552AE57AF587C007D0A1217
:10065D0002D97C007D0A1202D9ED2430F553755470
:10066D002EAE57AF588035E534640145337039AE41
:10067D0025AF26FC7D641202D9EF2430F552AE254C
:10068D00AF267C007D0A1202D97C007D0A1202D9A8
:10069D00ED2430F55375542EAE25AF267C007D0A22
:1006AD001202D9ED2430F5557B007A007935120A06
:1006BD00A47BFF7A09791D120AA47B007A00794682
:0C06CD00120AA47BFF7A097920020AA41B
:100A2F00E4FDFF120A0E7B007A007935120A4E7D23
:0F0A3F0001E4FF120A0E7B007A007946020A4E8C
:10033C00E4F508F509D290D291D29275570175580F
:10034C002CF5257526C87597011208D67F0612085C
:10035C0070E4FF1206D98E298F2A1209EC7F011244
:10036C0006D98E2B8F2C1209EC7F021206D98E2DFA
:10037C008F2E1209EC7F031206D98E2F8F301209A3
:10038C00EC7F041206D98E318F321209EC209005C5
:10039C00E4F533F534209106753300753401209261
:1003AC003AE53445337016D3E55894B6E5579403C3
:1003BC00500B74322558F558E43557F557E534642D
:1003CC000145337016D3E52694B6E5259403500BFE
:1003DC0074322526F526E43525F525E558B4E80ACA
:1003EC00E557B40305E4F557F558E526B4E80AE5F6
:1003FC0025B40305E4F525F526D3E52C9558E52B16
:10040C00955740047F0180027F00D3E52A9558E57B
:10041C0029955740047E0180027E00EE4FFFD3E504
:10042C002E9558E52D955740047E0180027E00EEF6
:10043C004FFFD3E5309558E52F955740047E01804A
:10044C00027E00EE4FFFD3E5329558E531955740CB
:10045C00047E0180027E00EE4F602775080075094E
:10046C00027F0F7E001209F0B2B4E5091509700283
:10047C001508D3E5099400E5086480948050E202E5
:10048C000514C3E52C9526E52B952550047F01809A
:10049C00027F00C3E52A9526E529952550047E01A7
:1004AC0080027E00EE4FFFC3E52E9526E52D9525A7
:1004BC0050047E0180027E00EE4FFFC3E53095268E
:1004CC00E52F952550047E0180027E00EE4FFFC380
:1004DC00E5329526E531952550047E0180027E009B
:1004EC00EE4F60247508007509027F0F7E0012091B
:1004FC00F0B2B3E509150970021508D3E5099400AB
:10050C00E5086480948050E212051D120A2F020344
:01051C005D81
:100003000202ABE86480F8E933E83360110460F07E
:10001300ED33EC337009E8FCE9FDEAFEEBFF220463
:1000230060DED3EB9FEA9EE99DE8C2E78CF0C2F75E
:1000330095F0400CE8CCF8E9CDF9EACEFAEBCFFB2A
:1000430012027685D0F05804700320D5B3E804700B
:10005300075002B2D50202B592D5EC0460F7E4CCA6
:10006300C0E0C398F8603B94186008400DD0E0FBF3
:1000730002028DE4FBFAC9FC8028E830E406E4C9F7
:10008300FBE4CAFCE830E305E4C9CACBFCE8540747
:100093006010F8C3E913F9EA13FAEB13FBEC13FC52
:1000A300D8F130F52FC3E49CFCEF9BFFEE9AFEEDF5
:1000B30099FDD0E0FBEF4E4D4C701222DB030202A0
:1000C300B2EC2CFCEF33FFEE33FEED33FDED30E706
:1000D300EB02028DEF2BFFEE3AFEED39FDD0E0FB94
:1000E30050130BBB00030202B5ED13FDEE13FEEF3D
:0800F30013FFEC13FC02028D67
:1000FB00EC4D6011E8497017ED33EC3304600DE4FF
:10010B00FCFFFEFD22E933E8330470F80202AB1268
:10011B00027658046009E4CC248150062850090269
:10012B0002B52840030202B2C0E0EB4A7044B9802A
:10013B0006D0E0FB0202A1EF4E701CBD8008EBFF66
:10014B00EAFEE9FD80EBE98DF0A4FEE5F00201E4A7
:10015B00E9CDF9EAFEEBFFEF89F0A4FCE5F0CE89DF
:10016B00F0A42EFFE435F0CD89F0A42DFEE435F09C
:10017B008067EF4E7005BD80D780C3EF8BF0A4ACCA
:10018B00F0EE8BF0A42CFCE435F0F8EF8AF0A42C05
:10019B00E5F038FCE433CB8DF0A42CFCE5F03BF818
:1001AB00EE8AF0A42CFCE5F038F8E433CF89F0A408
:1001BB002CFCE5F038CF3400CE89F0A42FFFE5F00E
:1001CB003EFEE433C98DF0A42EFEE5F039CD8AF066
:1001DB00A42FFFE5F03EFEE43DFD33D0E0FB5007DE
:1001EB000BBB000F0202B5EC2CFCEF33FFEE33FE22
:0601FB00ED33FD02028D50
:1002010075F020800E75F010800575F0087D007E78
:10021100007F003392D530D50312032EEC3340100A
:10022100EF33FFEE33FEED33FDEC33FCD5F0ED2281
:0E023100E5F0247EA2D513CC92E7CDCEFF22BD
:10023F00EDD2E7CD33EC3392D524814006E4FFFEB7
:10024F00FDFC22FCE4CFCECDCC24E0501174FF8016
:10025F00EDC3CC13CCCD13CDCE13CECF13CF0470B3
:07026F00F030D5DE02032E82
:10027600E9D2E7C933E833F892D5EDD2E7CD33ECCE
:0702860033FC5002B2D52247
:10028D00EC30E7100FBF000C0EBE00080DBD0004D2
:10029D000BEB6014A2D5EB13FCED92E7FD2274FF7E
:1002AD00FCFDFEFF22E480F8A2D574FF13FC7D80D7
:0302BD00E480EFEB
:0300000002077A7A
:0C077A00787FE4F6D8FD75815A0207C1B3
:1002C000BB010689828A83E0225002E722BBFE023C
:0902D000E32289828A83E493226F
:1002D900BC000BBE0029EF8DF084FFADF022E4CC09
:1002E900F875F008EF2FFFEE33FEEC33FCEE9DECD2
:1002F900984005FCEE9DFE0FD5F0E9E4CEFD22ED18
:10030900F8F5F0EE8420D21CFEADF075F008EF2F61
:10031900FFED33FD4007985006D5F0F222C398FD52
:050329000FD5F0EA22EF
:0E032E00C3E49FFFE49EFEE49DFDE49CFC22E0
:1007860002033CE493A3F8E493A34003F68001F24A
:1007960008DFF48029E493A3F85407240CC8C33374
:1007A600C4540F4420C8834004F456800146F6DF43
:1007B600E4800B01020408102040809009C5E47E05
:1007C600019360BCA3FF543F30E509541FFEE49338
:1007D600A360010ECF54C025E060A840B8E493A3FF
:1007E600FAE493A3F8E493A3C8C582C8CAC583CA2A
:1007F600F0A3C8C582C8CAC583CADFE9DEE780BEE2
:0109EB00000B
:00000001FF
